{
  "_format": "hh-sol-artifact-1",
  "contractName": "TicketSale",
  "sourceName": "contracts/TicketSale.sol",
  "abi": [
    {
      "inputs": [
        {
          "internalType": "uint256",
          "name": "numTickets",
          "type": "uint256"
        },
        {
          "internalType": "uint256",
          "name": "price",
          "type": "uint256"
        }
      ],
      "stateMutability": "nonpayable",
      "type": "constructor"
    },
    {
      "anonymous": false,
      "inputs": [
        {
          "indexed": false,
          "internalType": "uint256",
          "name": "ticketId",
          "type": "uint256"
        },
        {
          "indexed": false,
          "internalType": "address",
          "name": "buyer",
          "type": "address"
        }
      ],
      "name": "TicketPurchased",
      "type": "event"
    },
    {
      "anonymous": false,
      "inputs": [
        {
          "indexed": false,
          "internalType": "uint256",
          "name": "ticketId",
          "type": "uint256"
        },
        {
          "indexed": false,
          "internalType": "uint256",
          "name": "price",
          "type": "uint256"
        }
      ],
      "name": "TicketResaleListed",
      "type": "event"
    },
    {
      "anonymous": false,
      "inputs": [
        {
          "indexed": false,
          "internalType": "uint256",
          "name": "ticketId",
          "type": "uint256"
        },
        {
          "indexed": false,
          "internalType": "address",
          "name": "from",
          "type": "address"
        },
        {
          "indexed": false,
          "internalType": "address",
          "name": "to",
          "type": "address"
        },
        {
          "indexed": false,
          "internalType": "uint256",
          "name": "price",
          "type": "uint256"
        }
      ],
      "name": "TicketResold",
      "type": "event"
    },
    {
      "anonymous": false,
      "inputs": [
        {
          "indexed": false,
          "internalType": "uint256",
          "name": "ticketId",
          "type": "uint256"
        },
        {
          "indexed": false,
          "internalType": "address",
          "name": "offerer",
          "type": "address"
        }
      ],
      "name": "TicketSwapOffered",
      "type": "event"
    },
    {
      "anonymous": false,
      "inputs": [
        {
          "indexed": false,
          "internalType": "uint256",
          "name": "ticket1Id",
          "type": "uint256"
        },
        {
          "indexed": false,
          "internalType": "uint256",
          "name": "ticket2Id",
          "type": "uint256"
        }
      ],
      "name": "TicketSwapped",
      "type": "event"
    },
    {
      "inputs": [
        {
          "internalType": "uint256",
          "name": "ticketId",
          "type": "uint256"
        }
      ],
      "name": "acceptResale",
      "outputs": [],
      "stateMutability": "payable",
      "type": "function"
    },
    {
      "inputs": [
        {
          "internalType": "uint256",
          "name": "ticketId",
          "type": "uint256"
        }
      ],
      "name": "acceptSwap",
      "outputs": [],
      "stateMutability": "nonpayable",
      "type": "function"
    },
    {
      "inputs": [
        {
          "internalType": "uint256",
          "name": "additionalTickets",
          "type": "uint256"
        }
      ],
      "name": "addTickets",
      "outputs": [],
      "stateMutability": "nonpayable",
      "type": "function"
    },
    {
      "inputs": [
        {
          "internalType": "uint256",
          "name": "ticketId",
          "type": "uint256"
        }
      ],
      "name": "buyTicket",
      "outputs": [],
      "stateMutability": "payable",
      "type": "function"
    },
    {
      "inputs": [],
      "name": "checkResale",
      "outputs": [
        {
          "internalType": "uint256[]",
          "name": "",
          "type": "uint256[]"
        }
      ],
      "stateMutability": "view",
      "type": "function"
    },
    {
      "inputs": [],
      "name": "getAvailableTickets",
      "outputs": [
        {
          "internalType": "uint256[]",
          "name": "",
          "type": "uint256[]"
        }
      ],
      "stateMutability": "view",
      "type": "function"
    },
    {
      "inputs": [
        {
          "internalType": "uint256",
          "name": "ticketId",
          "type": "uint256"
        }
      ],
      "name": "getTicketDetails",
      "outputs": [
        {
          "internalType": "address",
          "name": "owner",
          "type": "address"
        },
        {
          "internalType": "bool",
          "name": "isForSale",
          "type": "bool"
        },
        {
          "internalType": "uint256",
          "name": "resalePrice",
          "type": "uint256"
        }
      ],
      "stateMutability": "view",
      "type": "function"
    },
    {
      "inputs": [
        {
          "internalType": "address",
          "name": "person",
          "type": "address"
        }
      ],
      "name": "getTicketOf",
      "outputs": [
        {
          "internalType": "uint256",
          "name": "",
          "type": "uint256"
        }
      ],
      "stateMutability": "view",
      "type": "function"
    },
    {
      "inputs": [],
      "name": "getTicketPriceInEther",
      "outputs": [
        {
          "internalType": "uint256",
          "name": "",
          "type": "uint256"
        }
      ],
      "stateMutability": "view",
      "type": "function"
    },
    {
      "inputs": [],
      "name": "getTotalAvailableTickets",
      "outputs": [
        {
          "internalType": "uint256",
          "name": "",
          "type": "uint256"
        }
      ],
      "stateMutability": "view",
      "type": "function"
    },
    {
      "inputs": [],
      "name": "manager",
      "outputs": [
        {
          "internalType": "address",
          "name": "",
          "type": "address"
        }
      ],
      "stateMutability": "view",
      "type": "function"
    },
    {
      "inputs": [
        {
          "internalType": "uint256",
          "name": "ticketId",
          "type": "uint256"
        }
      ],
      "name": "offerSwap",
      "outputs": [],
      "stateMutability": "nonpayable",
      "type": "function"
    },
    {
      "inputs": [
        {
          "internalType": "uint256",
          "name": "price",
          "type": "uint256"
        }
      ],
      "name": "resaleTicket",
      "outputs": [],
      "stateMutability": "nonpayable",
      "type": "function"
    },
    {
      "inputs": [
        {
          "internalType": "uint256",
          "name": "",
          "type": "uint256"
        }
      ],
      "name": "swapOffers",
      "outputs": [
        {
          "internalType": "address",
          "name": "",
          "type": "address"
        }
      ],
      "stateMutability": "view",
      "type": "function"
    },
    {
      "inputs": [
        {
          "internalType": "uint256",
          "name": "",
          "type": "uint256"
        }
      ],
      "name": "ticketOwners",
      "outputs": [
        {
          "internalType": "address",
          "name": "",
          "type": "address"
        }
      ],
      "stateMutability": "view",
      "type": "function"
    },
    {
      "inputs": [],
      "name": "ticketPrice",
      "outputs": [
        {
          "internalType": "uint256",
          "name": "",
          "type": "uint256"
        }
      ],
      "stateMutability": "view",
      "type": "function"
    },
    {
      "inputs": [
        {
          "internalType": "uint256",
          "name": "",
          "type": "uint256"
        }
      ],
      "name": "ticketsForResale",
      "outputs": [
        {
          "internalType": "uint256",
          "name": "",
          "type": "uint256"
        }
      ],
      "stateMutability": "view",
      "type": "function"
    },
    {
      "inputs": [
        {
          "internalType": "address",
          "name": "",
          "type": "address"
        }
      ],
      "name": "ticketsOwned",
      "outputs": [
        {
          "internalType": "uint256",
          "name": "",
          "type": "uint256"
        }
      ],
      "stateMutability": "view",
      "type": "function"
    },
    {
      "inputs": [],
      "name": "totalTickets",
      "outputs": [
        {
          "internalType": "uint256",
          "name": "",
          "type": "uint256"
        }
      ],
      "stateMutability": "view",
      "type": "function"
    },
    {
      "inputs": [
        {
          "internalType": "uint256",
          "name": "newPrice",
          "type": "uint256"
        }
      ],
      "name": "updateTicketPrice",
      "outputs": [],
      "stateMutability": "nonpayable",
      "type": "function"
    }
  ],
  "bytecode": "0x60806040523480156200001157600080fd5b50604051620026ec380380620026ec8339818101604052810190620000379190620001d2565b600082116200007d576040517f08c379a00000000000000000000000000000000000000000000000000000000081526004016200007490620002a0565b60405180910390fd5b60008111620000c3576040517f08c379a0000000000000000000000000000000000000000000000000000000008152600401620000ba9062000312565b60405180910390fd5b336000806101000a81548173ffffffffffffffffffffffffffffffffffffffff021916908373ffffffffffffffffffffffffffffffffffffffff16021790555080600181905550816002819055506000600190505b828111620001895760006003600083815260200190815260200160002060006101000a81548173ffffffffffffffffffffffffffffffffffffffff021916908373ffffffffffffffffffffffffffffffffffffffff1602179055508080620001809062000363565b91505062000118565b505050620003b0565b600080fd5b6000819050919050565b620001ac8162000197565b8114620001b857600080fd5b50565b600081519050620001cc81620001a1565b92915050565b60008060408385031215620001ec57620001eb62000192565b5b6000620001fc85828601620001bb565b92505060206200020f85828601620001bb565b9150509250929050565b600082825260208201905092915050565b7f4e756d626572206f66207469636b657473206d75737420626520706f7369746960008201527f7665000000000000000000000000000000000000000000000000000000000000602082015250565b60006200028860228362000219565b915062000295826200022a565b604082019050919050565b60006020820190508181036000830152620002bb8162000279565b9050919050565b7f5072696365206d75737420626520706f73697469766500000000000000000000600082015250565b6000620002fa60168362000219565b91506200030782620002c2565b602082019050919050565b600060208201905081810360008301526200032d81620002eb565b9050919050565b7f4e487b7100000000000000000000000000000000000000000000000000000000600052601160045260246000fd5b6000620003708262000197565b91507fffffffffffffffffffffffffffffffffffffffffffffffffffffffffffffffff8203620003a557620003a462000334565b5b600182019050919050565b61232c80620003c06000396000f3fe60806040526004361061011f5760003560e01c806367dd74ca116100a0578063a3c1a1fe11610064578063a3c1a1fe146103e1578063c4a4be831461040a578063dd11247e14610435578063eb2dbcf614610460578063f02137c81461049d5761011f565b806367dd74ca146103045780639199385914610320578063943ba2121461034b578063951e202114610367578063a13f1c62146103a45761011f565b8063406b2c2c116100e7578063406b2c2c1461021f578063407724ac14610248578063481c6a75146102855780635a8acacc146102b05780635ff3337f146102db5761011f565b80630412f4ab146101245780630a144fbf146101615780631209b1f61461018c5780631bf33004146101b757806324c14160146101e0575b600080fd5b34801561013057600080fd5b5061014b600480360381019061014691906118dd565b6104c6565b6040516101589190611923565b60405180910390f35b34801561016d57600080fd5b5061017661050f565b6040516101839190611923565b60405180910390f35b34801561019857600080fd5b506101a1610519565b6040516101ae9190611923565b60405180910390f35b3480156101c357600080fd5b506101de60048036038101906101d9919061196a565b61051f565b005b3480156101ec57600080fd5b506102076004803603810190610202919061196a565b610852565b604051610216939291906119c1565b60405180910390f35b34801561022b57600080fd5b506102466004803603810190610241919061196a565b610913565b005b34801561025457600080fd5b5061026f600480360381019061026a919061196a565b610acb565b60405161027c9190611923565b60405180910390f35b34801561029157600080fd5b5061029a610ae3565b6040516102a791906119f8565b60405180910390f35b3480156102bc57600080fd5b506102c5610b07565b6040516102d29190611ad1565b60405180910390f35b3480156102e757600080fd5b5061030260048036038101906102fd919061196a565b610cb5565b005b61031e6004803603810190610319919061196a565b610e25565b005b34801561032c57600080fd5b506103356110b0565b6040516103429190611923565b60405180910390f35b6103656004803603810190610360919061196a565b611158565b005b34801561037357600080fd5b5061038e600480360381019061038991906118dd565b6114e4565b60405161039b9190611923565b60405180910390f35b3480156103b057600080fd5b506103cb60048036038101906103c6919061196a565b6114fc565b6040516103d891906119f8565b60405180910390f35b3480156103ed57600080fd5b506104086004803603810190610403919061196a565b61152f565b005b34801561041657600080fd5b5061041f61164e565b60405161042c9190611ad1565b60405180910390f35b34801561044157600080fd5b5061044a611766565b6040516104579190611923565b60405180910390f35b34801561046c57600080fd5b506104876004803603810190610482919061196a565b61176c565b60405161049491906119f8565b60405180910390f35b3480156104a957600080fd5b506104c460048036038101906104bf919061196a565b61179f565b005b6000600460008373ffffffffffffffffffffffffffffffffffffffff1673ffffffffffffffffffffffffffffffffffffffff168152602001908152602001600020549050919050565b6000600154905090565b60015481565b6000600460003373ffffffffffffffffffffffffffffffffffffffff1673ffffffffffffffffffffffffffffffffffffffff168152602001908152602001600020549050600081036105a6576040517f08c379a000000000000000000000000000000000000000000000000000000000815260040161059d90611b50565b60405180910390fd5b6003600083815260200190815260200160002060009054906101000a900473ffffffffffffffffffffffffffffffffffffffff1673ffffffffffffffffffffffffffffffffffffffff166006600083815260200190815260200160002060009054906101000a900473ffffffffffffffffffffffffffffffffffffffff1673ffffffffffffffffffffffffffffffffffffffff161461067a576040517f08c379a000000000000000000000000000000000000000000000000000000000815260040161067190611bbc565b60405180910390fd5b60006003600084815260200190815260200160002060009054906101000a900473ffffffffffffffffffffffffffffffffffffffff169050806003600084815260200190815260200160002060006101000a81548173ffffffffffffffffffffffffffffffffffffffff021916908373ffffffffffffffffffffffffffffffffffffffff160217905550336003600085815260200190815260200160002060006101000a81548173ffffffffffffffffffffffffffffffffffffffff021916908373ffffffffffffffffffffffffffffffffffffffff16021790555082600460003373ffffffffffffffffffffffffffffffffffffffff1673ffffffffffffffffffffffffffffffffffffffff1681526020019081526020016000208190555081600460008373ffffffffffffffffffffffffffffffffffffffff1673ffffffffffffffffffffffffffffffffffffffff168152602001908152602001600020819055506006600083815260200190815260200160002060006101000a81549073ffffffffffffffffffffffffffffffffffffffff02191690557f3c5c3ca34136e6c4e2255ca1f42341f16cf924acaee035adeb287bda89025af68284604051610845929190611bdc565b60405180910390a1505050565b6000806000808411801561086857506002548411155b6108a7576040517f08c379a000000000000000000000000000000000000000000000000000000000815260040161089e90611c51565b60405180910390fd5b6003600085815260200190815260200160002060009054906101000a900473ffffffffffffffffffffffffffffffffffffffff16600060056000878152602001908152602001600020541160056000878152602001908152602001600020549250925092509193909250565b6000600460003373ffffffffffffffffffffffffffffffffffffffff1673ffffffffffffffffffffffffffffffffffffffff1681526020019081526020016000205490506000810361099a576040517f08c379a000000000000000000000000000000000000000000000000000000000815260040161099190611b50565b60405180910390fd5b600073ffffffffffffffffffffffffffffffffffffffff166003600084815260200190815260200160002060009054906101000a900473ffffffffffffffffffffffffffffffffffffffff1673ffffffffffffffffffffffffffffffffffffffff1603610a3c576040517f08c379a0000000000000000000000000000000000000000000000000000000008152600401610a3390611cbd565b60405180910390fd5b336006600084815260200190815260200160002060006101000a81548173ffffffffffffffffffffffffffffffffffffffff021916908373ffffffffffffffffffffffffffffffffffffffff1602179055507f0c429c57e135043f6747763fe5b3b53a88a48f2f03c709eaeb8634d2bf3d3f7c8233604051610abf929190611cdd565b60405180910390a15050565b60056020528060005260406000206000915090505481565b60008054906101000a900473ffffffffffffffffffffffffffffffffffffffff1681565b6060600080600190505b6002548111610ba357600073ffffffffffffffffffffffffffffffffffffffff166003600083815260200190815260200160002060009054906101000a900473ffffffffffffffffffffffffffffffffffffffff1673ffffffffffffffffffffffffffffffffffffffff1603610b90578180610b8c90611d35565b9250505b8080610b9b90611d35565b915050610b11565b5060008167ffffffffffffffff811115610bc057610bbf611d7d565b5b604051908082528060200260200182016040528015610bee5781602001602082028036833780820191505090505b509050600080600190505b6002548111610cab57600073ffffffffffffffffffffffffffffffffffffffff166003600083815260200190815260200160002060009054906101000a900473ffffffffffffffffffffffffffffffffffffffff1673ffffffffffffffffffffffffffffffffffffffff1603610c985780838381518110610c7d57610c7c611dac565b5b6020026020010181815250508180610c9490611d35565b9250505b8080610ca390611d35565b915050610bf9565b5081935050505090565b60008054906101000a900473ffffffffffffffffffffffffffffffffffffffff1673ffffffffffffffffffffffffffffffffffffffff163373ffffffffffffffffffffffffffffffffffffffff1614610d43576040517f08c379a0000000000000000000000000000000000000000000000000000000008152600401610d3a90611e27565b60405180910390fd5b60008111610d86576040517f08c379a0000000000000000000000000000000000000000000000000000000008152600401610d7d90611e93565b60405180910390fd5b600081600254610d969190611eb3565b905060006001600254610da99190611eb3565b90505b818111610e195760006003600083815260200190815260200160002060006101000a81548173ffffffffffffffffffffffffffffffffffffffff021916908373ffffffffffffffffffffffffffffffffffffffff1602179055508080610e1190611d35565b915050610dac565b50806002819055505050565b600081118015610e3757506002548111155b610e76576040517f08c379a0000000000000000000000000000000000000000000000000000000008152600401610e6d90611c51565b60405180910390fd5b600073ffffffffffffffffffffffffffffffffffffffff166003600083815260200190815260200160002060009054906101000a900473ffffffffffffffffffffffffffffffffffffffff1673ffffffffffffffffffffffffffffffffffffffff1614610f18576040517f08c379a0000000000000000000000000000000000000000000000000000000008152600401610f0f90611f33565b60405180910390fd5b6000600460003373ffffffffffffffffffffffffffffffffffffffff1673ffffffffffffffffffffffffffffffffffffffff1681526020019081526020016000205414610f9a576040517f08c379a0000000000000000000000000000000000000000000000000000000008152600401610f9190611f9f565b60405180910390fd5b6001543414610fde576040517f08c379a0000000000000000000000000000000000000000000000000000000008152600401610fd59061200b565b60405180910390fd5b336003600083815260200190815260200160002060006101000a81548173ffffffffffffffffffffffffffffffffffffffff021916908373ffffffffffffffffffffffffffffffffffffffff16021790555080600460003373ffffffffffffffffffffffffffffffffffffffff1673ffffffffffffffffffffffffffffffffffffffff168152602001908152602001600020819055507f785f2865353ae960010300f584fc6c577b757a853af69a99c769df3c8232d3de81336040516110a5929190611cdd565b60405180910390a150565b600080600090506000600190505b600254811161115057600073ffffffffffffffffffffffffffffffffffffffff166003600083815260200190815260200160002060009054906101000a900473ffffffffffffffffffffffffffffffffffffffff1673ffffffffffffffffffffffffffffffffffffffff160361113d57818061113990611d35565b9250505b808061114890611d35565b9150506110be565b508091505090565b60006005600083815260200190815260200160002054116111ae576040517f08c379a00000000000000000000000000000000000000000000000000000000081526004016111a590612077565b60405180910390fd5b60056000828152602001908152602001600020543414611203576040517f08c379a00000000000000000000000000000000000000000000000000000000081526004016111fa906120e3565b60405180910390fd5b6000600460003373ffffffffffffffffffffffffffffffffffffffff1673ffffffffffffffffffffffffffffffffffffffff1681526020019081526020016000205414611285576040517f08c379a000000000000000000000000000000000000000000000000000000000815260040161127c90611f9f565b60405180910390fd5b60006003600083815260200190815260200160002060009054906101000a900473ffffffffffffffffffffffffffffffffffffffff16905060006005600084815260200190815260200160002054905060006064600a836112e69190612103565b6112f09190612174565b90506000818361130091906121a5565b90508373ffffffffffffffffffffffffffffffffffffffff166108fc829081150290604051600060405180830381858888f19350505050158015611348573d6000803e3d6000fd5b5060008054906101000a900473ffffffffffffffffffffffffffffffffffffffff1673ffffffffffffffffffffffffffffffffffffffff166108fc839081150290604051600060405180830381858888f193505050501580156113af573d6000803e3d6000fd5b50336003600087815260200190815260200160002060006101000a81548173ffffffffffffffffffffffffffffffffffffffff021916908373ffffffffffffffffffffffffffffffffffffffff16021790555084600460003373ffffffffffffffffffffffffffffffffffffffff1673ffffffffffffffffffffffffffffffffffffffff16815260200190815260200160002081905550600460008573ffffffffffffffffffffffffffffffffffffffff1673ffffffffffffffffffffffffffffffffffffffff1681526020019081526020016000206000905560056000868152602001908152602001600020600090557fd59a36d8310ffb140214be490baf3fe8961f859a17199ec1bf9015c8b7340011858533866040516114d594939291906121d9565b60405180910390a15050505050565b60046020528060005260406000206000915090505481565b60066020528060005260406000206000915054906101000a900473ffffffffffffffffffffffffffffffffffffffff1681565b6000600460003373ffffffffffffffffffffffffffffffffffffffff1673ffffffffffffffffffffffffffffffffffffffff168152602001908152602001600020549050600081036115b6576040517f08c379a00000000000000000000000000000000000000000000000000000000081526004016115ad90611b50565b60405180910390fd5b600082116115f9576040517f08c379a00000000000000000000000000000000000000000000000000000000081526004016115f09061226a565b60405180910390fd5b8160056000838152602001908152602001600020819055507fa365c2e4770e249b3dbb47dbf991ec623ced2f1ded6b65442da12cade5514e078183604051611642929190611bdc565b60405180910390a15050565b6060600080600190505b600254811161169f5760006005600083815260200190815260200160002054111561168c57818061168890611d35565b9250505b808061169790611d35565b915050611658565b5060008167ffffffffffffffff8111156116bc576116bb611d7d565b5b6040519080825280602002602001820160405280156116ea5781602001602082028036833780820191505090505b509050600080600190505b600254811161175c57600060056000838152602001908152602001600020541115611749578083838151811061172e5761172d611dac565b5b602002602001018181525050818061174590611d35565b9250505b808061175490611d35565b9150506116f5565b5081935050505090565b60025481565b60036020528060005260406000206000915054906101000a900473ffffffffffffffffffffffffffffffffffffffff1681565b60008054906101000a900473ffffffffffffffffffffffffffffffffffffffff1673ffffffffffffffffffffffffffffffffffffffff163373ffffffffffffffffffffffffffffffffffffffff161461182d576040517f08c379a0000000000000000000000000000000000000000000000000000000008152600401611824906122d6565b60405180910390fd5b60008111611870576040517f08c379a00000000000000000000000000000000000000000000000000000000081526004016118679061226a565b60405180910390fd5b8060018190555050565b600080fd5b600073ffffffffffffffffffffffffffffffffffffffff82169050919050565b60006118aa8261187f565b9050919050565b6118ba8161189f565b81146118c557600080fd5b50565b6000813590506118d7816118b1565b92915050565b6000602082840312156118f3576118f261187a565b5b6000611901848285016118c8565b91505092915050565b6000819050919050565b61191d8161190a565b82525050565b60006020820190506119386000830184611914565b92915050565b6119478161190a565b811461195257600080fd5b50565b6000813590506119648161193e565b92915050565b6000602082840312156119805761197f61187a565b5b600061198e84828501611955565b91505092915050565b6119a08161189f565b82525050565b60008115159050919050565b6119bb816119a6565b82525050565b60006060820190506119d66000830186611997565b6119e360208301856119b2565b6119f06040830184611914565b949350505050565b6000602082019050611a0d6000830184611997565b92915050565b600081519050919050565b600082825260208201905092915050565b6000819050602082019050919050565b611a488161190a565b82525050565b6000611a5a8383611a3f565b60208301905092915050565b6000602082019050919050565b6000611a7e82611a13565b611a888185611a1e565b9350611a9383611a2f565b8060005b83811015611ac4578151611aab8882611a4e565b9750611ab683611a66565b925050600181019050611a97565b5085935050505092915050565b60006020820190508181036000830152611aeb8184611a73565b905092915050565b600082825260208201905092915050565b7f596f7520646f6e2774206f776e2061207469636b657400000000000000000000600082015250565b6000611b3a601683611af3565b9150611b4582611b04565b602082019050919050565b60006020820190508181036000830152611b6981611b2d565b9050919050565b7f4e6f2076616c69642073776170206f6666657200000000000000000000000000600082015250565b6000611ba6601383611af3565b9150611bb182611b70565b602082019050919050565b60006020820190508181036000830152611bd581611b99565b9050919050565b6000604082019050611bf16000830185611914565b611bfe6020830184611914565b9392505050565b7f496e76616c6964207469636b6574204944000000000000000000000000000000600082015250565b6000611c3b601183611af3565b9150611c4682611c05565b602082019050919050565b60006020820190508181036000830152611c6a81611c2e565b9050919050565b7f546172676574207469636b6574206e6f74206f776e6564000000000000000000600082015250565b6000611ca7601783611af3565b9150611cb282611c71565b602082019050919050565b60006020820190508181036000830152611cd681611c9a565b9050919050565b6000604082019050611cf26000830185611914565b611cff6020830184611997565b9392505050565b7f4e487b7100000000000000000000000000000000000000000000000000000000600052601160045260246000fd5b6000611d408261190a565b91507fffffffffffffffffffffffffffffffffffffffffffffffffffffffffffffffff8203611d7257611d71611d06565b5b600182019050919050565b7f4e487b7100000000000000000000000000000000000000000000000000000000600052604160045260246000fd5b7f4e487b7100000000000000000000000000000000000000000000000000000000600052603260045260246000fd5b7f4f6e6c79206d616e616765722063616e20616464207469636b65747300000000600082015250565b6000611e11601c83611af3565b9150611e1c82611ddb565b602082019050919050565b60006020820190508181036000830152611e4081611e04565b9050919050565b7f4d75737420616464206174206c65617374206f6e65207469636b657400000000600082015250565b6000611e7d601c83611af3565b9150611e8882611e47565b602082019050919050565b60006020820190508181036000830152611eac81611e70565b9050919050565b6000611ebe8261190a565b9150611ec98361190a565b9250828201905080821115611ee157611ee0611d06565b5b92915050565b7f5469636b657420616c726561647920736f6c6400000000000000000000000000600082015250565b6000611f1d601383611af3565b9150611f2882611ee7565b602082019050919050565b60006020820190508181036000830152611f4c81611f10565b9050919050565b7f416c7265616479206f776e732061207469636b65740000000000000000000000600082015250565b6000611f89601583611af3565b9150611f9482611f53565b602082019050919050565b60006020820190508181036000830152611fb881611f7c565b9050919050565b7f496e636f7272656374207061796d656e7420616d6f756e740000000000000000600082015250565b6000611ff5601883611af3565b915061200082611fbf565b602082019050919050565b6000602082019050818103600083015261202481611fe8565b9050919050565b7f5469636b6574206e6f7420666f7220726573616c650000000000000000000000600082015250565b6000612061601583611af3565b915061206c8261202b565b602082019050919050565b6000602082019050818103600083015261209081612054565b9050919050565b7f496e636f7272656374207061796d656e74000000000000000000000000000000600082015250565b60006120cd601183611af3565b91506120d882612097565b602082019050919050565b600060208201905081810360008301526120fc816120c0565b9050919050565b600061210e8261190a565b91506121198361190a565b92508282026121278161190a565b9150828204841483151761213e5761213d611d06565b5b5092915050565b7f4e487b7100000000000000000000000000000000000000000000000000000000600052601260045260246000fd5b600061217f8261190a565b915061218a8361190a565b92508261219a57612199612145565b5b828204905092915050565b60006121b08261190a565b91506121bb8361190a565b92508282039050818111156121d3576121d2611d06565b5b92915050565b60006080820190506121ee6000830187611914565b6121fb6020830186611997565b6122086040830185611997565b6122156060830184611914565b95945050505050565b7f5072696365206d75737420626520706f73697469766500000000000000000000600082015250565b6000612254601683611af3565b915061225f8261221e565b602082019050919050565b6000602082019050818103600083015261228381612247565b9050919050565b7f4f6e6c79206d616e616765722063616e20757064617465207072696365000000600082015250565b60006122c0601d83611af3565b91506122cb8261228a565b602082019050919050565b600060208201905081810360008301526122ef816122b3565b905091905056fea264697066735822122017248e5860713a2d179ff78bdbe85392713865fe6c67f843cb939c4d4f8812b764736f6c63430008110033",
  "linkReferences": {},
  "deployedLinkReferences": {}
}